:030000000204AD4A
:0C04AD00787FE4F6D8FD7581250204F488
:1005A600C2A7C2A58F807F017E001205B9D2A77FA0
:0305B600057E00BF
:1005B900D3EF9400EE940040217DC77C007B017A43
:1005C90000EB1B70011AEB4A70F7ED1D70011CED71
:0A05D9004C70EAEF1F70D91E80D6A7
:0105E30022F5
:08070F00C2A61205A6C2A72232
:08071700D2A61205A6C2A7221A
:1006C7007F3812070F7F0C12070F7F0612070F7F65
:0906D7000112070F7F8002070FDA
:0D06F7006672657175656E743A4D487A0043
:04071F00022403E8C5
:0B070400C2A2C2A1C2A0D2A0C2A022CB
:1006E000C2A2C2A1C2A0D2A0C2A0C2A2D2A2C2A2D1
:0706F000C2A1D2A1C2A122A8
:020403008F0860
:1004050075146E75131275120375114CAF0CAE0B86
:10041500AD0AAC097B007A247974784912010C8FF6
:100425000C8E0B8D0A8C09AB14AA13A912A81112F4
:1004350000038F0C8E0B8D0A8C091201E78F108E2D
:100445000F8D0E8C0DAF088F90D2A2C2A2AF10AE49
:100455000FAD0EAC0D78181202CB8F90D2A2C2A2AE
:10046500AF10AE0FAD0EAC0D78101202CB8F90D23F
:10047500A2C2A2AF10AE0FAD0EAC0D78081202CB22
:100485008F90D2A2C2A2AF10AE0FAD0EAC0D790007
:1004950078001202CB8F108E0F8D0E8C0D8F90D29F
:0704A500A2C2A2D2A1C2A174
:0104AC00222D
:0202DF008F1579
:1002E10075216E752012751F03751E4CAF19AE185E
:1002F100AD17AC167B007A247974784912010C8F02
:10030100198E188D178C16AB21AA20A91FA81E12B1
:1003110000038F198E188D178C161201E78F1D8E11
:100321001C8D1B8C1A790078001202CB8F1D8E1C3C
:100331008D1B8C1AE4FEEEC39408748094805014D3
:10034100A806EF088002C313D8FC139297D2A2C269
:10035100A20E80E2AF1DAE1CAD1BAC1A78081202D2
:10036100CBE4FEEEC39408748094805014A806EF89
:10037100088002C313D8FC139297D2A2C2A20E80A6
:10038100E2AF1DAE1CAD1BAC1A78101202CBE4FE1D
:10039100EEC39408748094805014A806EF0880027C
:1003A100C313D8FC139297D2A2C2A20E80E2AF1D52
:1003B100AE1CAD1BAC1A78181202CBE4FEEEC3944E
:1003C10008748094805014A806EF088002C313D8E3
:1003D100FC139297D2A2C2A20E80E2AF15E4FEEE08
:1003E100C39408748094805014A806EF088002C357
:1003F10013D8FC139297D2A2C2A20E80E2D2A1C25C
:01040100A159
:0104020022D7
:10064B007F8012070FE4F515F51674F72516F58262
:10065B0074063515F583E493FF1207170516E51697
:0D066B0070020515C39409E515940040DDEB
:01067800225F
:10061C007FC812070F75150075160974F72516F5A6
:10062C008274063515F583E493FF1207170516E55A
:0E063C001670020515C3940CE515940040DD00
:01064A00228D
:100539007FC812070FAE22AF237C007D64120268C8
:100549008E228F23EF2430FF1207177FC912070F5E
:10055900AE22AF237C007D0A1202688E228F237C93
:10056900007D0A1202688C228D23E5232430FF12B4
:1005790007177FD012070FAE22AF237C007D6412CC
:1005890002688C228D23AE22AF237C007D0A1202E1
:0D059900688C228D23E5232430FF02071714
:10067900D3EF9400EE940040217DC77C007B017A82
:1006890000EB1B70011AEB4A70F7ED1D70011CEDB0
:0A0699004C70EAEF1F70D91E80D6E6
:0106A3002234
:1005E40020B1187F0A7E0012067920B10E746425AA
:1005F40025F525E43524F52420B1FD20B0197F0A22
:100604007E0012067920B00F749C2525F52574FF11
:080614003524F52420B0FD227D
:1006A4001206C712064B12061C1206E0AC24AD2536
:1006B400EC1201AE8F198E188D178C16E4FF1202FE
:0306C400DF80E0F4
:10000300EC4D6011E8497017ED33EC3304600DE4F7
:10001300FCFFFEFD22E933E8330470F802025312B9
:10002300021E58046009E4CC2481500628500902BA
:10003300025D28400302025AC0E0EB4A7044B980D3
:1000430006D0E0FB020249EF4E701CBD8008EBFFB7
:10005300EAFEE9FD80EBE98DF0A4FEE5F00200EC99
:10006300E9CDF9EAFEEBFFEF89F0A4FCE5F0CE89D8
:10007300F0A42EFFE435F0CD89F0A42DFEE435F095
:100083008067EF4E7005BD80D780C3EF8BF0A4ACC3
:10009300F0EE8BF0A42CFCE435F0F8EF8AF0A42CFE
:1000A300E5F038FCE433CB8DF0A42CFCE5F03BF811
:1000B300EE8AF0A42CFCE5F038F8E433CF89F0A401
:1000C3002CFCE5F038CF3400CE89F0A42FFFE5F007
:1000D3003EFEE433C98DF0A42EFEE5F039CD8AF05F
:1000E300A42FFFE5F03EFEE43DFD33D0E0FB5007D7
:1000F3000BBB000F02025DEC2CFCEF33FFEE33FE73
:06010300ED33FD020235A0
:1001090002025DEC5D046005E859047003020253C4
:1001190012021E580460F6EC4860F2EC7004FDFE11
:10012900FF22C860DB2481C85009C39860025006C9
:1001390002025A9850CAF582E9294B4A7005AB82E6
:1001490002024975F0007C1A7880C3EF9BEE9AEDA4
:1001590099400DC3EF9BFFEE9AFEED99FDE842F041
:10016900DC23ACF0D0E0FFD0E0FED0E0FDAB822094
:10017900E7101BEB60BAEC2CFCEF33FFEE33FEED1E
:1001890033FD020235E803F830E705C0F075F000E9
:10019900EF2FFFEE33FEED33FD40B830E7C280AA02
:1001A90075F020800E75F010800575F0087D007ED1
:1001B900007F003392D530D5031202BDEC334010D5
:1001C900EF33FFEE33FEED33FDEC33FCD5F0ED22DA
:0E01D900E5F0247EA2D513CC92E7CDCEFF2216
:1001E700EDD2E7CD33EC3392D524814006E4FFFE10
:1001F700FDFC22FCE4CFCECDCC24E0501174FF806F
:10020700EDC3CC13CCCD13CDCE13CECF13CF04700B
:07021700F030D5DE0202BD4C
:10021E00E9D2E7C933E833F892D5EDD2E7CD33EC26
:07022E0033FC5002B2D5229F
:10023500EC30E7100FBF000C0EBE00080DBD00042A
:100245000BEB6014A2D5EB13FCED92E7FD2274FFD6
:10025500FCFDFEFF22E480F8A2D574FF13FC7D802F
:03026500E480EF43
:1004B9000206A4E493A3F8E493A34003F68001F2AF
:1004C90008DFF48029E493A3F85407240CC8C33344
:1004D900C4540F4420C8834004F456800146F6DF13
:1004E900E4800B010204081020408090071FE47E7D
:1004F900019360BCA3FF543F30E509541FFEE49308
:10050900A360010ECF54C025E060A840B8E493A3CE
:10051900FAE493A3F8E493A3C8C582C8CAC583CAF9
:10052900F0A3C8C582C8CAC583CADFE9DEE780BEB1
:0107230000D5
:10026800BC000BBE0029EF8DF084FFADF022E4CC7A
:10027800F875F008EF2FFFEE33FEEC33FCEE9DEC43
:10028800984005FCEE9DFE0FD5F0E9E4CEFD22ED89
:10029800F8F5F0EE8420D21CFEADF075F008EF2FD3
:1002A800FFED33FD4007985006D5F0F222C398FDC4
:0502B8000FD5F0EA2261
:0E02BD00C3E49FFFE49EFEE49DFDE49CFC2252
:1002CB00E86010ECA2E713FCED13FDEE13FEEF1349
:0402DB00FFD8F02236
:00000001FF
