:030000000205896D
:0C058900787FE4F6D8FD75812D0205D0C6
:10061500C2A7C2A58F807F017E00120628D2A77FC0
:03062500057E004F
:10062800D3EF9400EE940040217DC77C007B017AD3
:1006380000EB1B70011AEB4A70F7ED1D70011CED01
:0A0648004C70EAEF1F70D91E80D637
:010652002285
:0807C000C2A6120615C2A72211
:0807C800D2A6120615C2A722F9
:100742007F381207C07F0C1207C07F061207C07FD6
:09075200011207C07F800207C0FC
:0E0790004672657175656E63793A4D487A0060
:10075B0006264552524F520002240000022200008E
:04076B00022C00005C
:0607DF00E4F52CF52D22CB
:0B07AA00C2A2C2A1C2A0D2A0C2A02225
:100770001207AAC2A2D2A2C2A2C2A1D2A1C2A1221F
:02044E008F0815
:1004500075146E75131275120375114CAF0CAE0B3B
:10046000AD0AAC097B007A247974784912010C8FAB
:100470000C8E0B8D0A8C09AB14AA13A912A81112A9
:1004800000038F0C8E0B8D0A8C091201E78F108EE2
:100490000F8D0E8C0DAF088F90D2A2C2A2AF10AEFE
:1004A0000FAD0EAC0D78181202AC8F90D2A2C2A282
:1004B000AF10AE0FAD0EAC0D78101202AC8F90D213
:1004C000A2C2A2AF10AE0FAD0EAC0D78081202ACF6
:1004D0008F90D2A2C2A2AF10AE0FAD0EAC0D7900BC
:1004E00078001202AC8F108E0F8D0E8C0D8F90D273
:0704F000A2C2A2D2A1C2A129
:0104F70022E2
:10031500120770AC2CAD2DEC1201AE8F198E188D15
:05032500178C16E4FF37
:02032A008F152D
:10032C0075216E752012751F03751E4CAF19AE1812
:10033C00AD17AC167B007A247974784912010C8FB6
:10034C00198E188D178C16AB21AA20A91FA81E1266
:10035C0000038F198E188D178C161201E78F1D8EC6
:10036C001C8D1B8C1A790078001202AC8F1D8E1C10
:10037C008D1B8C1AE4FEEEC3940874809480501488
:10038C00A806EF088002C313D8FC139297D2A2C21E
:10039C00A20E80E2AF1DAE1CAD1BAC1A7808120287
:1003AC00ACE4FEEEC39408748094805014A806EF5D
:1003BC00088002C313D8FC139297D2A2C2A20E805B
:1003CC00E2AF1DAE1CAD1BAC1A78101202ACE4FEF1
:1003DC00EEC39408748094805014A806EF08800231
:1003EC00C313D8FC139297D2A2C2A20E80E2AF1D07
:1003FC00AE1CAD1BAC1A78181202ACE4FEEEC39422
:10040C0008748094805014A806EF088002C313D897
:10041C00FC139297D2A2C2A20E80E2AF15E4FEEEBC
:10042C00C39408748094805014A806EF088002C30B
:10043C0013D8FC139297D2A2C2A20E80E2D2A1C210
:01044C00A10E
:01044D00228C
:100682007F801207C0E4F515F51674902516F582E1
:1006920074073515F583E493FF1207C80516E516AE
:0D06A20070020515C3940AE515940040DDB3
:0106AF002228
:100653007FC81207C075150075160A74902516F524
:100663008274073515F583E493FF1207C80516E571
:0E0673001670020515C3940DE515940040DDC8
:010681002256
:0707D800852C24852D25224C
:1004F8001207D87FC41207C0AE24AF257C037DE85D
:100508001202688E228F23AE24AF257C037DE81269
:1005180002688C248D25E5232430FF1207C87FC587
:100528001207C0AE24AF257C007D641202688E22BB
:100538008F23AE24AF257C007D641202688C248D45
:1005480025E5232430FF1207C87FC61207C0AE2452
:10055800AF257C007D0A1202688E228F23AE24AF5D
:10056800257C007D0A1202688C248D25E523243021
:10057800FF1207C87FC71207C0E5252430FF02070E
:01058800C8AA
:1006DB001207427FC41207C0E4F515F516742625E0
:1006EB0016F8E6FF1207C80516E51670020515C3C6
:0806FB009405E515940040E5AB
:0107030022D3
:0807D0001203151206DB80F88C
:1006B000D3EF9400EE940040217DC77C007B017A4B
:1006C00000EB1B70011AEB4A70F7ED1D70011CED79
:0A06D0004C70EAEF1F70D91E80D6AF
:0106DA0022FD
:0C079E001203151206821204F802065322
:1007270020B10C7464252DF52DE4352CF52C2220F1
:0B073700B108E4F52CF52D1207272275
:1007800020B00C749C252DF52D74FF352CF52C22F2
:1007040012079EC3E52C648094804013D3E52D9496
:10071400ACE52C648094A6500612072702078012C9
:0307240007D022D9
:0B07B5001207DF12074212070480FB4E
:10000300EC4D6011E8497017ED33EC3304600DE4F7
:10001300FCFFFEFD22E933E8330470F802025312B9
:10002300021E58046009E4CC2481500628500902BA
:10003300025D28400302025AC0E0EB4A7044B980D3
:1000430006D0E0FB020249EF4E701CBD8008EBFFB7
:10005300EAFEE9FD80EBE98DF0A4FEE5F00200EC99
:10006300E9CDF9EAFEEBFFEF89F0A4FCE5F0CE89D8
:10007300F0A42EFFE435F0CD89F0A42DFEE435F095
:100083008067EF4E7005BD80D780C3EF8BF0A4ACC3
:10009300F0EE8BF0A42CFCE435F0F8EF8AF0A42CFE
:1000A300E5F038FCE433CB8DF0A42CFCE5F03BF811
:1000B300EE8AF0A42CFCE5F038F8E433CF89F0A401
:1000C3002CFCE5F038CF3400CE89F0A42FFFE5F007
:1000D3003EFEE433C98DF0A42EFEE5F039CD8AF05F
:1000E300A42FFFE5F03EFEE43DFD33D0E0FB5007D7
:1000F3000BBB000F02025DEC2CFCEF33FFEE33FE73
:06010300ED33FD020235A0
:1001090002025DEC5D046005E859047003020253C4
:1001190012021E580460F6EC4860F2EC7004FDFE11
:10012900FF22C860DB2481C85009C39860025006C9
:1001390002025A9850CAF582E9294B4A7005AB82E6
:1001490002024975F0007C1A7880C3EF9BEE9AEDA4
:1001590099400DC3EF9BFFEE9AFEED99FDE842F041
:10016900DC23ACF0D0E0FFD0E0FED0E0FDAB822094
:10017900E7101BEB60BAEC2CFCEF33FFEE33FEED1E
:1001890033FD020235E803F830E705C0F075F000E9
:10019900EF2FFFEE33FEED33FD40B830E7C280AA02
:1001A90075F020800E75F010800575F0087D007ED1
:1001B900007F003392D530D50312029EEC334010F4
:1001C900EF33FFEE33FEED33FDEC33FCD5F0ED22DA
:0E01D900E5F0247EA2D513CC92E7CDCEFF2216
:1001E700EDD2E7CD33EC3392D524814006E4FFFE10
:1001F700FDFC22FCE4CFCECDCC24E0501174FF806F
:10020700EDC3CC13CCCD13CDCE13CECF13CF04700B
:07021700F030D5DE02029E6B
:10021E00E9D2E7C933E833F892D5EDD2E7CD33EC26
:07022E0033FC5002B2D5229F
:10023500EC30E7100FBF000C0EBE00080DBD00042A
:100245000BEB6014A2D5EB13FCED92E7FD2274FFD6
:10025500FCFDFEFF22E480F8A2D574FF13FC7D802F
:03026500E480EF43
:100595000207B5E493A3F8E493A34003F68001F2C0
:1005A50008DFF48029E493A3F85407240CC8C33367
:1005B500C4540F4420C8834004F456800146F6DF36
:1005C500E4800B010204081020408090075BE47E64
:1005D500019360BCA3FF543F30E509541FFEE4932B
:1005E500A360010ECF54C025E060A840B8E493A3F2
:1005F500FAE493A3F8E493A3C8C582C8CAC583CA1D
:10060500F0A3C8C582C8CAC583CADFE9DEE780BED4
:01076F000089
:10026800C2D5EC30E709B2D5E4C39DFDE49CFCEEB1
:1002780030E715B2D5E4C39FFFE49EFE1202C0C367
:10028800E49DFDE49CFC80031202C030D507C3E462
:060298009FFFE49EFE2220
:0E029E00C3E49FFFE49EFEE49DFDE49CFC2271
:1002AC00E86010ECA2E713FCED13FDEE13FEEF1368
:0402BC00FFD8F02255
:1002C000BC000BBE0029EF8DF084FFADF022E4CC22
:1002D000F875F008EF2FFFEE33FEEC33FCEE9DECEB
:1002E000984005FCEE9DFE0FD5F0E9E4CEFD22ED31
:1002F000F8F5F0EE8420D21CFEADF075F008EF2F7B
:10030000FFED33FD4007985006D5F0F222C398FD6B
:050310000FD5F0EA2208
:00000001FF
